{
  "contractName": "Counter",
  "abi": [
    {
      "inputs": [],
      "name": "increment",
      "outputs": [],
      "stateMutability": "nonpayable",
      "type": "function"
    },
    {
      "inputs": [],
      "name": "decrement",
      "outputs": [],
      "stateMutability": "nonpayable",
      "type": "function"
    },
    {
      "inputs": [],
      "name": "incrementByTen",
      "outputs": [],
      "stateMutability": "payable",
      "type": "function",
      "payable": true
    },
    {
      "inputs": [],
      "name": "getCount",
      "outputs": [
        {
          "internalType": "uint256",
          "name": "",
          "type": "uint256"
        }
      ],
      "stateMutability": "view",
      "type": "function",
      "constant": true
    },
    {
      "inputs": [],
      "name": "getOwner",
      "outputs": [
        {
          "internalType": "address",
          "name": "",
          "type": "address"
        }
      ],
      "stateMutability": "view",
      "type": "function",
      "constant": true
    }
  ],
  "bytecode": "0x6080604052336000806101000a81548173ffffffffffffffffffffffffffffffffffffffff021916908373ffffffffffffffffffffffffffffffffffffffff160217905550600060015534801561005557600080fd5b50610576806100656000396000f3fe60806040526004361061004a5760003560e01c80632baeceb71461004f57806346c6d87914610066578063893d20e814610070578063a87d942c1461009b578063d09de08a146100c6575b600080fd5b34801561005b57600080fd5b506100646100dd565b005b61006e610191565b005b34801561007c57600080fd5b5061008561025e565b60405161009291906102ec565b60405180910390f35b3480156100a757600080fd5b506100b0610287565b6040516100bd9190610320565b60405180910390f35b3480156100d257600080fd5b506100db610291565b005b60008054906101000a900473ffffffffffffffffffffffffffffffffffffffff1673ffffffffffffffffffffffffffffffffffffffff163373ffffffffffffffffffffffffffffffffffffffff161461016b576040517f08c379a0000000000000000000000000000000000000000000000000000000008152600401610162906103be565b60405180910390fd5b6000600154111561018f57600160008154809291906101899061040d565b91905055505b565b34670de0b6b3a7640000146101db576040517f08c379a00000000000000000000000000000000000000000000000000000000081526004016101d290610482565b60405180910390fd5b60008054906101000a900473ffffffffffffffffffffffffffffffffffffffff1673ffffffffffffffffffffffffffffffffffffffff166108fc349081150290604051600060405180830381858888f19350505050158015610241573d6000803e3d6000fd5b50600a6001600082825461025591906104a2565b92505081905550565b60008060009054906101000a900473ffffffffffffffffffffffffffffffffffffffff16905090565b6000600154905090565b600160008154809291906102a4906104f8565b9190505550565b600073ffffffffffffffffffffffffffffffffffffffff82169050919050565b60006102d6826102ab565b9050919050565b6102e6816102cb565b82525050565b600060208201905061030160008301846102dd565b92915050565b6000819050919050565b61031a81610307565b82525050565b60006020820190506103356000830184610311565b92915050565b600082825260208201905092915050565b7f546869732066756e6374696f6e206973207265737472696374656420746f207460008201527f686520636f6e74726163742773206f776e657200000000000000000000000000602082015250565b60006103a860338361033b565b91506103b38261034c565b604082019050919050565b600060208201905081810360008301526103d78161039b565b9050919050565b7f4e487b7100000000000000000000000000000000000000000000000000000000600052601160045260246000fd5b600061041882610307565b91506000820361042b5761042a6103de565b5b600182039050919050565b7f496e636f72726563742076616c75650000000000000000000000000000000000600082015250565b600061046c600f8361033b565b915061047782610436565b602082019050919050565b6000602082019050818103600083015261049b8161045f565b9050919050565b60006104ad82610307565b91506104b883610307565b9250827fffffffffffffffffffffffffffffffffffffffffffffffffffffffffffffffff038211156104ed576104ec6103de565b5b828201905092915050565b600061050382610307565b91507fffffffffffffffffffffffffffffffffffffffffffffffffffffffffffffffff8203610535576105346103de565b5b60018201905091905056fea2646970667358221220e519ad31125307ff13b4a0962ffe9eb5b8ba1e9113a28ec9e401b5d549cbe5f464736f6c634300080d0033",
  "immutableReferences": {},
  "source": "// SPDX-License-Identifier: MIT\npragma solidity >=0.4.22 <0.9.0;\n\ncontract Counter {\n    address private _owner = msg.sender;\n    uint256 private _count = 0;\n\n    function increment() public {\n        _count++;\n    }\n\n    function decrement() public restricted {\n        if (_count > 0) {\n            _count--;\n        }\n    }\n\n    function incrementByTen() public payable {\n        // 1 eth === 1_000_000_000_000_000_000 wei\n        require(1_000_000_000_000_000_000 == msg.value, \"Incorrect value\");\n\n        payable(_owner).transfer(msg.value);\n\n        _count += 10;\n    }\n\n    function getCount() public view returns (uint256) {\n        return _count;\n    }\n\n    function getOwner() public view returns (address) {\n        return _owner;\n    }\n\n    modifier restricted() {\n        require(\n            msg.sender == _owner,\n            \"This function is restricted to the contract's owner\"\n        );\n        _;\n    }\n}\n",
  "sourcePath": "/home/rfaita/personal/introdapp/contracts/contracts/Counter.sol",
  "compiler": {
    "name": "solc",
    "version": "0.8.13+commit.abaa5c0e.Emscripten.clang"
  },
  "schemaVersion": "3.4.7",
  "updatedAt": "2022-05-12T13:40:51.197Z",
  "networkType": "ethereum",
  "devdoc": {
    "kind": "dev",
    "methods": {},
    "version": 1
  },
  "userdoc": {
    "kind": "user",
    "methods": {},
    "version": 1
  }
}